:100000000C942A000C9447000C9447000C94470071
:100010000C9447000C9447000C9447000C94470044
:100020000C9447000C9447000C9447000C94590220
:100030000C9447000C9447000C9447000C94470024
:100040000C9447000C9447000C9447000C94470014
:100050000C94470011241FBECFE5D8E0DEBFCDBF12
:1000600010E0A0E6B0E0E0E0FAE002C005900D92FA
:10007000AC38B107D9F720E0ACE8B0E001C01D9280
:10008000A039B207E1F70E94F0000C94FE040C9432
:1000900000009BB39F70282F207F922B9BBB98B3AF
:1000A000926098BB98B39B7F98BB98B3986098BBBD
:1000B00035E03A95F1F7000098B3977F98BBEFE1F0
:1000C000F3E03197F1F700C000002BB3F0E18F9F10
:1000D000C0011124922F9F70892B8BBB88B388603D
:1000E00088BB35E03A95F1F7000088B3877F88BB7D
:1000F0008FE99FE00197F1F700C0000008959BB3DE
:100100009F70282F207F922B9BBB98B39D7F98BB1D
:1001100098B39B7F98BB98B3986098BB35E03A95AD
:10012000F1F7000098B3977F98BBEFE1F3E03197C8
:10013000F1F700C000002BB3F0E18F9FC001112444
:10014000922F9F70892B8BBB88B3886088BB35E06A
:100150003A95F1F7000088B3877F88BB8FE99FE06D
:100160000197F1F700C0000008958AB3806F8ABB41
:1001700087B3886087BB87B3826087BB87B384609F
:1001800087BB82E00E947F0088E20E947F008CE0B3
:100190000E947F0086E00E947F0081E00E947F0035
:1001A0002FEF89EF90E0215080409040E1F700C0B0
:1001B000000008950F931F93CF93DF938C01C0E04D
:1001C000D0E003C00E9449002196F801EC0FFD1F0A
:1001D00080818111F7CFDF91CF911F910F91089509
:1001E000CF93DF9300D0CDB7DEB70E94E8010E9425
:1001F0008F010E947E020E94B5001A8219820E941D
:100200009E010E94DA010E94F50101E010E0CE019A
:1002100001960E94870201301105E9F489819A81D3
:100220008F3191051CF00E949E0115C04F979CF4E0
:100230000E94AB010E94EE012FEF83ED90E321506D
:1002400080409040E1F700C00000CE0101960E947E
:10025000870202E010E002301105A9F589819A8138
:100260008F319105ECF00E94C6010E949E012FEF94
:1002700081E19AE7215080409040E1F700C0000002
:100280000E94F5012FEF83ED90E3215080409040D4
:10029000E1F700C000000E94DA0101E010E013C0A5
:1002A0004F978CF40E94FC012FEF83ED90E32150D7
:1002B00080409040E1F700C00000CE0101960E940E
:1002C000870203E010E00330110509F0A0CF898117
:1002D0009A818F319105ECF00E94B2010E949E013B
:1002E0002FEF81E19AE7215080409040E1F700C074
:1002F00000000E94F5012FEF83ED90E32150804034
:100300009040E1F700C000000E94DA0101E010E037
:100310007ECF4F970CF07BCF0E94AB0178CF0E942D
:10032000080284B3806284BB84B3806484BB84B3DA
:10033000886084BB84B3806184BB089585B3806288
:1003400085BB85B38F7B85BB6AE979E989E19FE34A
:100350000E942102089585B38F7D85BB85B38F7B75
:1003600085BB089581E00E947F0085B3886085BBCE
:1003700085B38F7E85BB60E070E080E89FE30E94DC
:100380002E0280E690E00E94DA00089581E00E944B
:100390007F0085B3877F85BB85B3806185BB60E0C7
:1003A00070E080E89FE30E942E028DE690E00E94BC
:1003B000DA00089581E00E947F0085B3877F85BBC6
:1003C00085B38F7E85BB8BE790E00E94DA000895AD
:1003D0000E943B0281B3806881BB08956DEC7CEC88
:1003E0008CE49DE30E944E0208956DEC7CEC8CEC55
:1003F0009DE30E944E0208956AE979E989E19EE34E
:100400000E944E02089589B7816089BF789408954B
:100410008FB580688FBD8FB580628FBD8FB58160CD
:100420008FBD8FB582608FBD8EB588608EBD8EB555
:1004300084608EBD81B3806281BB81B3806181BBEA
:10044000089520E030E040E854E40E9491040E94C6
:10045000CD03615071097BBD6ABD089520E030E095
:1004600040E854E40E9491040E94CD036150710958
:1004700079BD68BD089585B5886085BD85B5806402
:1004800085BD85B5806285BD85B5816085BD85B535
:10049000826085BD85B5846085BD089520E030E02B
:1004A00040E853E40E9491040E94CD03615063BD73
:1004B00008951F920F920FB60F9211248F939F935E
:1004C000AF93BF9380918C0090918D00A0918E008E
:1004D000B0918F000196A11DB11D80938C00909367
:1004E0008D00A0938E00B0938F00BF91AF919F912C
:1004F0008F910F900FBE0F901F9018950E940302CE
:1005000081B3886081BB87B38E7F87BB0895CF920C
:10051000DF92EF92FF92CF93DF93EC012AE02A95CE
:10052000F1F700C082B3886082BB85E38A95F1F75A
:10053000000082B3877F82BBB09BFECF03C083B72E
:10054000816083BFB099FBCF83B78E7F83BF62B7D3
:1005500070E080E090E00E94050420E030E040E898
:100560005DE30E9491046B017C0160918C007091AD
:100570008D0080918E0090918F000E94050420E0F4
:1005800030E04FE751E40E9491049B01AC01C701A8
:10059000B6010E94EF0220E030E048E652E40E94FB
:1005A0005B030E94CD03798368839FEF2DEE82E089
:1005B000915020408040E1F700C0000012BE109230
:1005C0008C0010928D0010928E0010928F00DF919F
:1005D000CF91FF90EF90DF90CF9008955058BB27B8
:1005E000AA270E9406030C9457040E94490438F07D
:1005F0000E94500420F039F49F3F19F426F40C9423
:1006000046040EF4E095E7FB0C944004E92F0E94A9
:10061000680458F3BA17620773078407950720F038
:1006200079F4A6F50C948A040EF4E0950B2EBA2FFB
:10063000A02D0B01B90190010C01CA01A0011124E8
:10064000FF27591B99F0593F50F4503E68F11A1694
:10065000F040A22F232F342F4427585FF3CF469525
:1006600037952795A795F0405395C9F77EF41F1647
:10067000BA0B620B730B840BBAF09150A1F0FF0F11
:10068000BB1F661F771F881FC2F70EC0BA0F621FFD
:10069000731F841F48F4879577956795B795F795ED
:1006A0009E3F08F0B0CF9395880F08F09927EE0F82
:1006B0009795879508950E946F030C9457040E94A4
:1006C000500458F00E94490440F029F45F3F29F09B
:1006D0000C94400451110C948B040C9446040E9419
:1006E000680468F39923B1F3552391F3951B550BD7
:1006F000BB27AA2762177307840738F09F5F5F4FF5
:10070000220F331F441FAA1FA9F335D00E2E3AF033
:10071000E0E832D091505040E695001CCAF72BD04B
:10072000FE2F29D0660F771F881FBB1F261737079C
:100730004807AB07B0E809F0BB0B802DBF01FF27CE
:1007400093585F4F3AF09E3F510578F00C94400467
:100750000C948B045F3FE4F3983ED4F38695779531
:100760006795B795F7959F5FC9F7880F911D969587
:10077000879597F90895E1E0660F771F881FBB1FE3
:10078000621773078407BA0720F0621B730B840B90
:10079000BA0BEE1F88F7E09508950E94D403689481
:1007A000B1110C948B0408950E94700488F09F5737
:1007B00098F0B92F9927B751B0F0E1F0660F771F85
:1007C000881F991F1AF0BA95C9F714C0B13091F07B
:1007D0000E948A04B1E008950C948A04672F782F50
:1007E0008827B85F39F0B93FCCF386957795679540
:1007F000B395D9F73EF490958095709561957F4FAC
:100800008F4F9F4F0895E89409C097FB3EF4909551
:100810008095709561957F4F8F4F9F4F9923A9F0D9
:10082000F92F96E9BB279395F69587957795679568
:10083000B795F111F8CFFAF4BB0F11F460FF1BC0AC
:100840006F5F7F4F8F4F9F4F16C0882311F096E93F
:1008500011C0772321F09EE8872F762F05C06623ED
:1008600071F096E8862F70E060E02AF09A95660FA6
:10087000771F881FDAF7880F9695879597F908955F
:1008800097F99F6780E870E060E008959FEF80EC43
:10089000089500240A9416161706180609060895E6
:1008A00000240A9412161306140605060895092E4C
:1008B0000394000C11F4882352F0BB0F40F4BF2BBB
:1008C00011F460FF04C06F5F7F4F8F4F9F4F0895FB
:1008D00057FD9058440F551F59F05F3F71F04795F1
:1008E000880F97FB991F61F09F3F79F087950895D6
:1008F000121613061406551FF2CF4695F1DF08C0F5
:10090000161617061806991FF1CF86957105610511
:1009100008940895E894BB2766277727CB0197F9B9
:1009200008950E94A4040C9457040E94490438F0CE
:100930000E94500420F0952311F00C9440040C9474
:10094000460411240C948B040E94680470F3959F54
:10095000C1F3950F50E0551F629FF001729FBB27B6
:10096000F00DB11D639FAA27F00DB11DAA1F649F52
:100970006627B00DA11D661F829F2227B00DA11D05
:10098000621F739FB00DA11D621F839FA00D611D8B
:10099000221F749F3327A00D611D231F849F600DAC
:1009A000211D822F762F6A2F11249F5750409AF0D5
:1009B000F1F088234AF0EE0FFF1FBB1F661F771F61
:1009C000881F91505040A9F79E3F510580F00C942C
:1009D00040040C948B045F3FE4F3983ED4F3869577
:1009E00077956795B795F795E7959F5FC1F7FE2BCC
:1009F000880F911D9695879597F90895F894FFCFE4
:100A0000204D6F76696E67204C65667400204D6FCF
:100A100076696E6720526967687400206D6F766929
:0C0A20006E6720666F72776172640000E0
:00000001FF
